{
  "contractName": "EscrowService",
  "abi": [
    {
      "inputs": [],
      "payable": true,
      "stateMutability": "payable",
      "type": "constructor"
    },
    {
      "anonymous": false,
      "inputs": [],
      "name": "Aborted",
      "type": "event"
    },
    {
      "anonymous": false,
      "inputs": [],
      "name": "ItemRecieved",
      "type": "event"
    },
    {
      "anonymous": false,
      "inputs": [],
      "name": "PurchaseConfirmed",
      "type": "event"
    },
    {
      "anonymous": false,
      "inputs": [],
      "name": "SellerRefund",
      "type": "event"
    },
    {
      "constant": true,
      "inputs": [],
      "name": "buyer",
      "outputs": [
        {
          "internalType": "address payable",
          "name": "",
          "type": "address"
        }
      ],
      "payable": false,
      "stateMutability": "view",
      "type": "function"
    },
    {
      "constant": true,
      "inputs": [],
      "name": "seller",
      "outputs": [
        {
          "internalType": "address payable",
          "name": "",
          "type": "address"
        }
      ],
      "payable": false,
      "stateMutability": "view",
      "type": "function"
    },
    {
      "constant": true,
      "inputs": [],
      "name": "state",
      "outputs": [
        {
          "internalType": "enum EscrowService.State",
          "name": "",
          "type": "uint8"
        }
      ],
      "payable": false,
      "stateMutability": "view",
      "type": "function"
    },
    {
      "constant": true,
      "inputs": [],
      "name": "value",
      "outputs": [
        {
          "internalType": "uint256",
          "name": "",
          "type": "uint256"
        }
      ],
      "payable": false,
      "stateMutability": "view",
      "type": "function"
    },
    {
      "constant": false,
      "inputs": [],
      "name": "abort",
      "outputs": [],
      "payable": false,
      "stateMutability": "nonpayable",
      "type": "function"
    },
    {
      "constant": false,
      "inputs": [],
      "name": "confirmPurchase",
      "outputs": [],
      "payable": true,
      "stateMutability": "payable",
      "type": "function"
    },
    {
      "constant": false,
      "inputs": [],
      "name": "confirmRecieved",
      "outputs": [],
      "payable": false,
      "stateMutability": "nonpayable",
      "type": "function"
    },
    {
      "constant": false,
      "inputs": [],
      "name": "refundSeller",
      "outputs": [],
      "payable": false,
      "stateMutability": "nonpayable",
      "type": "function"
    }
  ],
  "bytecode": "0x608060405233600260006101000a81548173ffffffffffffffffffffffffffffffffffffffff021916908373ffffffffffffffffffffffffffffffffffffffff1602179055506002348161004f57fe5b0460008190555034600054600202146100d0576040517f08c379a00000000000000000000000000000000000000000000000000000000081526004018080602001828103825260158152602001807f56616c75652068617320746f206265206576656e2e000000000000000000000081525060200191505060405180910390fd5b6109f5806100df6000396000f3fe60806040526004361061007b5760003560e01c80637150d8ae1161004e5780637150d8ae14610130578063c19d93fb14610187578063c7981b1b146101c0578063d6960697146101d75761007b565b806308551a531461008057806334f013b1146100d757806335a063b4146100ee5780633fa4f24514610105575b600080fd5b34801561008c57600080fd5b506100956101e1565b604051808273ffffffffffffffffffffffffffffffffffffffff1673ffffffffffffffffffffffffffffffffffffffff16815260200191505060405180910390f35b3480156100e357600080fd5b506100ec610207565b005b3480156100fa57600080fd5b50610103610423565b005b34801561011157600080fd5b5061011a61063e565b6040518082815260200191505060405180910390f35b34801561013c57600080fd5b50610145610644565b604051808273ffffffffffffffffffffffffffffffffffffffff1673ffffffffffffffffffffffffffffffffffffffff16815260200191505060405180910390f35b34801561019357600080fd5b5061019c61066a565b604051808260038111156101ac57fe5b60ff16815260200191505060405180910390f35b3480156101cc57600080fd5b506101d561067d565b005b6101df61089d565b005b600260009054906101000a900473ffffffffffffffffffffffffffffffffffffffff1681565b600160009054906101000a900473ffffffffffffffffffffffffffffffffffffffff1673ffffffffffffffffffffffffffffffffffffffff163373ffffffffffffffffffffffffffffffffffffffff16146102ca576040517f08c379a000000000000000000000000000000000000000000000000000000000815260040180806020018281038252601c8152602001807f6f6e6c79207468652062757965722063616e2063616c6c20746869730000000081525060200191505060405180910390fd5b60018060038111156102d857fe5b600260149054906101000a900460ff1660038111156102f357fe5b14610366576040517f08c379a00000000000000000000000000000000000000000000000000000000081526004018080602001828103825260108152602001807f737461746520697320696e76616c69640000000000000000000000000000000081525060200191505060405180910390fd5b7fddb101f17feed7667a6cbdb9ed598053957a877f10ca3eb638deb2a1cc0cc05f60405160405180910390a160028060146101000a81548160ff021916908360038111156103b057fe5b0217905550600160009054906101000a900473ffffffffffffffffffffffffffffffffffffffff1673ffffffffffffffffffffffffffffffffffffffff166108fc6000549081150290604051600060405180830381858888f1935050505015801561041f573d6000803e3d6000fd5b5050565b600260009054906101000a900473ffffffffffffffffffffffffffffffffffffffff1673ffffffffffffffffffffffffffffffffffffffff163373ffffffffffffffffffffffffffffffffffffffff16146104e6576040517f08c379a00000000000000000000000000000000000000000000000000000000081526004018080602001828103825260198152602001807f6f6e6c792073656c6c65722063616e2063616c6c20746869730000000000000081525060200191505060405180910390fd5b60008060038111156104f457fe5b600260149054906101000a900460ff16600381111561050f57fe5b14610582576040517f08c379a00000000000000000000000000000000000000000000000000000000081526004018080602001828103825260108152602001807f737461746520697320696e76616c69640000000000000000000000000000000081525060200191505060405180910390fd5b7f72c874aeff0b183a56e2b79c71b46e1aed4dee5e09862134b8821ba2fddbf8bf60405160405180910390a16003600260146101000a81548160ff021916908360038111156105cd57fe5b0217905550600260009054906101000a900473ffffffffffffffffffffffffffffffffffffffff1673ffffffffffffffffffffffffffffffffffffffff166108fc479081150290604051600060405180830381858888f1935050505015801561063a573d6000803e3d6000fd5b5050565b60005481565b600160009054906101000a900473ffffffffffffffffffffffffffffffffffffffff1681565b600260149054906101000a900460ff1681565b600260009054906101000a900473ffffffffffffffffffffffffffffffffffffffff1673ffffffffffffffffffffffffffffffffffffffff163373ffffffffffffffffffffffffffffffffffffffff1614610740576040517f08c379a00000000000000000000000000000000000000000000000000000000081526004018080602001828103825260198152602001807f6f6e6c792073656c6c65722063616e2063616c6c20746869730000000000000081525060200191505060405180910390fd5b600280600381111561074e57fe5b600260149054906101000a900460ff16600381111561076957fe5b146107dc576040517f08c379a00000000000000000000000000000000000000000000000000000000081526004018080602001828103825260108152602001807f737461746520697320696e76616c69640000000000000000000000000000000081525060200191505060405180910390fd5b7f74b4a78b81d7b2916b1a34da4fd8c53f69689df90ab3c0768c69d161aca44bbf60405160405180910390a16003600260146101000a81548160ff0219169083600381111561082757fe5b0217905550600260009054906101000a900473ffffffffffffffffffffffffffffffffffffffff1673ffffffffffffffffffffffffffffffffffffffff166108fc6003600054029081150290604051600060405180830381858888f19350505050158015610899573d6000803e3d6000fd5b5050565b60008060038111156108ab57fe5b600260149054906101000a900460ff1660038111156108c657fe5b14610939576040517f08c379a00000000000000000000000000000000000000000000000000000000081526004018080602001828103825260108152602001807f737461746520697320696e76616c69640000000000000000000000000000000081525060200191505060405180910390fd5b6000546002023414156109bd577fd5d55c8a68912e9a110618df8d5e2e83b8d83211c57a8ddd1203df92885dc88160405160405180910390a13373ffffffffffffffffffffffffffffffffffffffff16600160009054906101000a905050506001600260146101000a81548160ff021916908360038111156109b757fe5b02179055505b5056fea265627a7a7231582043faa8e7f993eb68f2afd8f60d1a61d7a5bfa58b4112dd24ce2f23bd23688ea064736f6c63430005100032",
  "source": "// SPDX-License-Identifier: MIT\npragma solidity >=0.4.22 <0.8.0;\n\ncontract EscrowService { \n\n    // variables\n    uint public value;\n    address payable public buyer;\n    address payable public seller;\n\n    enum State { Created, Locked, Release, Inactive }\n\n    //state variable whivh has a default value of the first member\n    State public state;\n\n    //modifier to check the current state\n    modifier inState(State _state) {\n        require(state == _state, \"state is invalid\");\n        _;\n    }\n\n    //modifier to check that the function caller is the buyer\n    modifier onlyBuyer() {\n        require(msg.sender == buyer, \"only the buyer can call this\");\n        _;\n    }\n\n    //modifier to check that the function caller is the seller\n    modifier onlySeller() {\n        require(msg.sender == seller, \"only seller can call this\");\n        _;\n    }\n\n    //events to be emitted\n    event Aborted();\n    event PurchaseConfirmed();\n    event ItemRecieved();\n    event SellerRefund();\n\n\n    //ensure that msg.value is an even number\n     constructor() public payable {\n        seller = msg.sender;\n        value = msg.value / 2;\n        require((2 * value) == msg.value, \"Value has to be even.\");\n    }\n\n    /** @dev Function to abort the purchase and reclaim the ether\n     */\n    function abort() public onlySeller inState(State.Created) {\n        \n        emit Aborted();\n\n        state = State.Inactive;\n\n        //transfer funds back to buyer\n        seller.transfer(address(this).balance);\n    }\n\n     /** @dev Function to confirm the purchase\n     */\n     function confirmPurchase() public inState(State.Created) payable {\n\n         //check if the value is 2x \n         if(msg.value == (2 * value)) {\n             \n             emit PurchaseConfirmed();\n            \n            //set the buyer to the function caller\n             buyer == msg.sender;\n\n             state = State.Locked;\n         }\n\n     }\n\n      /** @dev Function to confirm you the buyer recieved the product and release the locked ether\n     */\n     function confirmRecieved() public onlyBuyer inState(State.Locked) {\n\n         emit ItemRecieved();\n\n         state = State.Release;\n\n         buyer.transfer(value);\n\n     }\n\n      /** @dev Function to refund the seller. this function pays the seller backs the remaining locked funds\n     */\n     function refundSeller() public onlySeller inState(State.Release) {\n\n         emit SellerRefund();\n\n         state = State.Inactive;\n\n         seller.transfer(value * 3);\n     }\n     \n\n\n}",
  "sourcePath": "/Users/njokuscript/Desktop/programming/bhill-test/contracts/Escrow.sol",
  "compiler": {
    "name": "solc",
    "version": "0.5.16+commit.9c3226ce.Emscripten.clang"
  },
  "schemaVersion": "3.2.5",
  "updatedAt": "2020-10-17T08:22:51.905Z",
  "networkType": "ethereum",
  "devdoc": {
    "methods": {
      "abort()": {
        "details": "Function to abort the purchase and reclaim the ether"
      },
      "confirmPurchase()": {
        "details": "Function to confirm the purchase"
      },
      "confirmRecieved()": {
        "details": "Function to confirm you the buyer recieved the product and release the locked ether"
      },
      "refundSeller()": {
        "details": "Function to refund the seller. this function pays the seller backs the remaining locked funds"
      }
    }
  },
  "userdoc": {
    "methods": {}
  }
}